{
  "_format": "hh-sol-artifact-1",
  "contractName": "EncryptedReviewPool",
  "sourceName": "contracts/EncryptedReviewPool.sol",
  "abi": [
    {
      "inputs": [
        {
          "internalType": "uint8",
          "name": "got",
          "type": "uint8"
        },
        {
          "internalType": "uint8",
          "name": "expected",
          "type": "uint8"
        }
      ],
      "name": "InvalidEncryptedInput",
      "type": "error"
    },
    {
      "inputs": [
        {
          "internalType": "int32",
          "name": "value",
          "type": "int32"
        }
      ],
      "name": "SecurityZoneOutOfBounds",
      "type": "error"
    },
    {
      "anonymous": false,
      "inputs": [
        {
          "indexed": true,
          "internalType": "uint256",
          "name": "paperId",
          "type": "uint256"
        },
        {
          "indexed": false,
          "internalType": "address",
          "name": "author",
          "type": "address"
        }
      ],
      "name": "IdentityRevealed",
      "type": "event"
    },
    {
      "anonymous": false,
      "inputs": [
        {
          "indexed": true,
          "internalType": "uint256",
          "name": "paperId",
          "type": "uint256"
        },
        {
          "indexed": false,
          "internalType": "bytes32",
          "name": "paperHash",
          "type": "bytes32"
        },
        {
          "indexed": false,
          "internalType": "uint8",
          "name": "groqScore",
          "type": "uint8"
        }
      ],
      "name": "PaperSubmitted",
      "type": "event"
    },
    {
      "anonymous": false,
      "inputs": [
        {
          "indexed": true,
          "internalType": "uint256",
          "name": "paperId",
          "type": "uint256"
        }
      ],
      "name": "VerdictReady",
      "type": "event"
    },
    {
      "anonymous": false,
      "inputs": [
        {
          "indexed": true,
          "internalType": "uint256",
          "name": "paperId",
          "type": "uint256"
        }
      ],
      "name": "VerdictRequested",
      "type": "event"
    },
    {
      "anonymous": false,
      "inputs": [
        {
          "indexed": true,
          "internalType": "uint256",
          "name": "paperId",
          "type": "uint256"
        },
        {
          "indexed": false,
          "internalType": "bool",
          "name": "accepted",
          "type": "bool"
        }
      ],
      "name": "VerdictRevealed",
      "type": "event"
    },
    {
      "anonymous": false,
      "inputs": [
        {
          "indexed": true,
          "internalType": "uint256",
          "name": "paperId",
          "type": "uint256"
        },
        {
          "indexed": true,
          "internalType": "address",
          "name": "reviewer",
          "type": "address"
        },
        {
          "indexed": false,
          "internalType": "uint8",
          "name": "votesIn",
          "type": "uint8"
        }
      ],
      "name": "VoteCast",
      "type": "event"
    },
    {
      "inputs": [
        {
          "internalType": "uint256",
          "name": "paperId",
          "type": "uint256"
        },
        {
          "internalType": "address",
          "name": "reviewer",
          "type": "address"
        }
      ],
      "name": "hasVoted",
      "outputs": [
        {
          "internalType": "bool",
          "name": "",
          "type": "bool"
        }
      ],
      "stateMutability": "view",
      "type": "function"
    },
    {
      "inputs": [
        {
          "internalType": "uint256",
          "name": "paperId",
          "type": "uint256"
        },
        {
          "internalType": "address",
          "name": "who",
          "type": "address"
        }
      ],
      "name": "isAssignedReviewer",
      "outputs": [
        {
          "internalType": "bool",
          "name": "",
          "type": "bool"
        }
      ],
      "stateMutability": "view",
      "type": "function"
    },
    {
      "inputs": [],
      "name": "paperCount",
      "outputs": [
        {
          "internalType": "uint256",
          "name": "",
          "type": "uint256"
        }
      ],
      "stateMutability": "view",
      "type": "function"
    },
    {
      "inputs": [
        {
          "internalType": "uint256",
          "name": "",
          "type": "uint256"
        }
      ],
      "name": "papers",
      "outputs": [
        {
          "internalType": "bytes32",
          "name": "paperHash",
          "type": "bytes32"
        },
        {
          "internalType": "euint32",
          "name": "encAuthorId",
          "type": "bytes32"
        },
        {
          "internalType": "uint8",
          "name": "groqScore",
          "type": "uint8"
        },
        {
          "internalType": "euint8",
          "name": "voteSum",
          "type": "bytes32"
        },
        {
          "internalType": "uint8",
          "name": "votesIn",
          "type": "uint8"
        },
        {
          "internalType": "ebool",
          "name": "passed",
          "type": "bytes32"
        },
        {
          "internalType": "bool",
          "name": "verdictRevealed",
          "type": "bool"
        },
        {
          "internalType": "bool",
          "name": "accepted",
          "type": "bool"
        },
        {
          "internalType": "address",
          "name": "author",
          "type": "address"
        }
      ],
      "stateMutability": "view",
      "type": "function"
    },
    {
      "inputs": [
        {
          "internalType": "uint256",
          "name": "paperId",
          "type": "uint256"
        }
      ],
      "name": "requestVerdict",
      "outputs": [],
      "stateMutability": "nonpayable",
      "type": "function"
    },
    {
      "inputs": [
        {
          "internalType": "uint256",
          "name": "paperId",
          "type": "uint256"
        },
        {
          "internalType": "uint32",
          "name": "authorId",
          "type": "uint32"
        },
        {
          "internalType": "bytes",
          "name": "signature",
          "type": "bytes"
        }
      ],
      "name": "revealIdentity",
      "outputs": [],
      "stateMutability": "nonpayable",
      "type": "function"
    },
    {
      "inputs": [
        {
          "internalType": "uint256",
          "name": "paperId",
          "type": "uint256"
        },
        {
          "internalType": "bool",
          "name": "plaintext",
          "type": "bool"
        },
        {
          "internalType": "bytes",
          "name": "signature",
          "type": "bytes"
        }
      ],
      "name": "revealVerdict",
      "outputs": [],
      "stateMutability": "nonpayable",
      "type": "function"
    },
    {
      "inputs": [
        {
          "internalType": "uint256",
          "name": "paperId",
          "type": "uint256"
        }
      ],
      "name": "reviewerStatuses",
      "outputs": [
        {
          "internalType": "address[3]",
          "name": "reviewers",
          "type": "address[3]"
        },
        {
          "internalType": "bool[3]",
          "name": "voted",
          "type": "bool[3]"
        }
      ],
      "stateMutability": "view",
      "type": "function"
    },
    {
      "inputs": [
        {
          "internalType": "bytes32",
          "name": "paperHash",
          "type": "bytes32"
        },
        {
          "components": [
            {
              "internalType": "uint256",
              "name": "ctHash",
              "type": "uint256"
            },
            {
              "internalType": "uint8",
              "name": "securityZone",
              "type": "uint8"
            },
            {
              "internalType": "uint8",
              "name": "utype",
              "type": "uint8"
            },
            {
              "internalType": "bytes",
              "name": "signature",
              "type": "bytes"
            }
          ],
          "internalType": "struct InEuint32",
          "name": "encAuthorId",
          "type": "tuple"
        },
        {
          "internalType": "uint8",
          "name": "groqScore",
          "type": "uint8"
        },
        {
          "internalType": "address[3]",
          "name": "reviewers",
          "type": "address[3]"
        }
      ],
      "name": "submitPaper",
      "outputs": [
        {
          "internalType": "uint256",
          "name": "paperId",
          "type": "uint256"
        }
      ],
      "stateMutability": "nonpayable",
      "type": "function"
    },
    {
      "inputs": [
        {
          "internalType": "uint256",
          "name": "paperId",
          "type": "uint256"
        },
        {
          "components": [
            {
              "internalType": "uint256",
              "name": "ctHash",
              "type": "uint256"
            },
            {
              "internalType": "uint8",
              "name": "securityZone",
              "type": "uint8"
            },
            {
              "internalType": "uint8",
              "name": "utype",
              "type": "uint8"
            },
            {
              "internalType": "bytes",
              "name": "signature",
              "type": "bytes"
            }
          ],
          "internalType": "struct InEbool",
          "name": "encApprove",
          "type": "tuple"
        }
      ],
      "name": "submitVote",
      "outputs": [],
      "stateMutability": "nonpayable",
      "type": "function"
    }
  ],
  "bytecode": "0x6080604052348015600e575f5ffd5b506135e18061001c5f395ff3fe608060405234801561000f575f5ffd5b506004361061009c575f3560e01c8063a56c2cb911610064578063a56c2cb914610185578063bc1bd27a146101a3578063de46f0f1146101d3578063e57eb5ae146101ef578063fbf43fd11461020b5761009c565b8063127e2e4e146100a057806336646251146100d1578063438596321461010157806346d73ac3146101315780635e775a271461014d575b5f5ffd5b6100ba60048036038101906100b591906121f4565b610227565b6040516100c89291906123a4565b60405180910390f35b6100eb60048036038101906100e6919061247b565b6104bd565b6040516100f8919061250a565b60405180910390f35b61011b6004803603810190610116919061254d565b610998565b604051610128919061259a565b60405180910390f35b61014b6004803603810190610146919061263a565b610a44565b005b610167600480360381019061016291906121f4565b610c15565b60405161017c99989796959493929190612716565b60405180910390f35b61018d610caf565b60405161019a919061250a565b60405180910390f35b6101bd60048036038101906101b8919061254d565b610cb5565b6040516101ca919061259a565b60405180910390f35b6101ed60048036038101906101e891906121f4565b610d1f565b005b610209600480360381019061020491906127da565b610ed3565b005b61022560048036038101906102209190612869565b61104d565b005b61022f612094565b6102376120b6565b61024083611369565b61027f576040517f08c379a00000000000000000000000000000000000000000000000000000000081526004016102769061291d565b60405180910390fd5b5f5f5f8581526020019081526020015f20905080600301600380602002604051908101604052809291908260038015610302576020028201915b815f9054906101000a900473ffffffffffffffffffffffffffffffffffffffff1673ffffffffffffffffffffffffffffffffffffffff16815260200190600101908083116102b9575b505050505092506040518060600160405280826006015f846003015f6003811061032f5761032e61293b565b5b015f9054906101000a900473ffffffffffffffffffffffffffffffffffffffff1673ffffffffffffffffffffffffffffffffffffffff1673ffffffffffffffffffffffffffffffffffffffff1681526020019081526020015f205f9054906101000a900460ff16151515158152602001826006015f846003016001600381106103bb576103ba61293b565b5b015f9054906101000a900473ffffffffffffffffffffffffffffffffffffffff1673ffffffffffffffffffffffffffffffffffffffff1673ffffffffffffffffffffffffffffffffffffffff1681526020019081526020015f205f9054906101000a900460ff16151515158152602001826006015f846003016002600381106104475761044661293b565b5b015f9054906101000a900473ffffffffffffffffffffffffffffffffffffffff1673ffffffffffffffffffffffffffffffffffffffff1673ffffffffffffffffffffffffffffffffffffffff1681526020019081526020015f205f9054906101000a900460ff1615151515815250915050915091565b5f5f5f1b8503610502576040517f08c379a00000000000000000000000000000000000000000000000000000000081526004016104f9906129b2565b60405180910390fd5b60018360ff161015801561051a5750600a8360ff1611155b610559576040517f08c379a000000000000000000000000000000000000000000000000000000000815260040161055090612a1a565b60405180910390fd5b5f73ffffffffffffffffffffffffffffffffffffffff16825f600381106105835761058261293b565b5b6020020160208101906105969190612a38565b73ffffffffffffffffffffffffffffffffffffffff161415801561060c57505f73ffffffffffffffffffffffffffffffffffffffff16826001600381106105e0576105df61293b565b5b6020020160208101906105f39190612a38565b73ffffffffffffffffffffffffffffffffffffffff1614155b801561066a57505f73ffffffffffffffffffffffffffffffffffffffff168260026003811061063e5761063d61293b565b5b6020020160208101906106519190612a38565b73ffffffffffffffffffffffffffffffffffffffff1614155b6106a9576040517f08c379a00000000000000000000000000000000000000000000000000000000081526004016106a090612aad565b60405180910390fd5b816001600381106106bd576106bc61293b565b5b6020020160208101906106d09190612a38565b73ffffffffffffffffffffffffffffffffffffffff16825f600381106106f9576106f861293b565b5b60200201602081019061070c9190612a38565b73ffffffffffffffffffffffffffffffffffffffff16141580156107a757508160026003811061073f5761073e61293b565b5b6020020160208101906107529190612a38565b73ffffffffffffffffffffffffffffffffffffffff16825f6003811061077b5761077a61293b565b5b60200201602081019061078e9190612a38565b73ffffffffffffffffffffffffffffffffffffffff1614155b801561082b5750816002600381106107c2576107c161293b565b5b6020020160208101906107d59190612a38565b73ffffffffffffffffffffffffffffffffffffffff16826001600381106107ff576107fe61293b565b5b6020020160208101906108129190612a38565b73ffffffffffffffffffffffffffffffffffffffff1614155b61086a576040517f08c379a000000000000000000000000000000000000000000000000000000000815260040161086190612b15565b60405180910390fd5b60015f81548092919061087c90612b60565b9190505590505f5f5f8381526020019081526020015f20905085815f01819055506108af856108aa90612d78565b611376565b816001018190555083816002015f6101000a81548160ff021916908360ff16021790555082816003019060036108e69291906120d8565b503381600a0160026101000a81548173ffffffffffffffffffffffffffffffffffffffff021916908373ffffffffffffffffffffffffffffffffffffffff1602179055506109335f61139e565b816007018190555061094881600101546113b0565b6109558160070154611431565b817f90f4cc9bd769cf7b644ab13b328adb00dcbfccf241829a921f96f69f8529e3408786604051610987929190612d8a565b60405180910390a250949350505050565b5f6109a283611369565b6109e1576040517f08c379a00000000000000000000000000000000000000000000000000000000081526004016109d89061291d565b60405180910390fd5b5f5f8481526020019081526020015f206006015f8373ffffffffffffffffffffffffffffffffffffffff1673ffffffffffffffffffffffffffffffffffffffff1681526020019081526020015f205f9054906101000a900460ff16905092915050565b610a4d84611369565b610a8c576040517f08c379a0000000000000000000000000000000000000000000000000000000008152600401610a839061291d565b60405180910390fd5b5f5f5f8681526020019081526020015f2090505f5f1b816009015403610ae7576040517f08c379a0000000000000000000000000000000000000000000000000000000008152600401610ade90612dfb565b60405180910390fd5b80600a015f9054906101000a900460ff1615610b38576040517f08c379a0000000000000000000000000000000000000000000000000000000008152600401610b2f90612e63565b60405180910390fd5b610b8a81600901548585858080601f0160208091040260200160405190810160405280939291908181526020018383808284375f81840152601f19601f820116905080830192505050505050506114b2565b600181600a015f6101000a81548160ff0219169083151502179055508381600a0160016101000a81548160ff021916908315150217905550847f987fae0f90f7405436c3a534c0fb96e0882244bbf7a4221db73e5130470b0bcd85604051610bf2919061259a565b60405180910390a28315610c0e57610c0d81600101546114d2565b5b5050505050565b5f602052805f5260405f205f91509050805f015490806001015490806002015f9054906101000a900460ff1690806007015490806008015f9054906101000a900460ff169080600901549080600a015f9054906101000a900460ff169080600a0160019054906101000a900460ff169080600a0160029054906101000a900473ffffffffffffffffffffffffffffffffffffffff16905089565b60015481565b5f610cbf83611369565b610cfe576040517f08c379a0000000000000000000000000000000000000000000000000000000008152600401610cf59061291d565b60405180910390fd5b610d175f5f8581526020019081526020015f2083611551565b905092915050565b610d2881611369565b610d67576040517f08c379a0000000000000000000000000000000000000000000000000000000008152600401610d5e9061291d565b60405180910390fd5b5f5f5f8381526020019081526020015f2090506003816008015f9054906101000a900460ff1660ff1614610dd0576040517f08c379a0000000000000000000000000000000000000000000000000000000008152600401610dc790612ecb565b60405180910390fd5b80600a015f9054906101000a900460ff1615610e21576040517f08c379a0000000000000000000000000000000000000000000000000000000008152600401610e1890612e63565b60405180910390fd5b5f5f1b816009015414610e69576040517f08c379a0000000000000000000000000000000000000000000000000000000008152600401610e6090612f33565b60405180910390fd5b610e808160070154610e7b600261139e565b611699565b8160090181905550610e9581600901546116e2565b610ea28160090154611763565b817fcbfcc7fc30b13dd9002cf19e5e3da7ec9d92dfb33a8882905adb30045397492e60405160405180910390a25050565b610edc84611369565b610f1b576040517f08c379a0000000000000000000000000000000000000000000000000000000008152600401610f129061291d565b60405180910390fd5b5f5f5f8681526020019081526020015f20905080600a015f9054906101000a900460ff168015610f59575080600a0160019054906101000a900460ff165b610f98576040517f08c379a0000000000000000000000000000000000000000000000000000000008152600401610f8f90612f9b565b60405180910390fd5b610fea81600101548585858080601f0160208091040260200160405190810160405280939291908181526020018383808284375f81840152601f19601f820116905080830192505050505050506117e2565b847f3f95bf1519c6c6ea25742433b1448cab7e6e96c7fbb2107346f8ab2746492d9882600a0160029054906101000a900473ffffffffffffffffffffffffffffffffffffffff1660405161103e9190612fb9565b60405180910390a25050505050565b61105682611369565b611095576040517f08c379a000000000000000000000000000000000000000000000000000000000815260040161108c9061291d565b60405180910390fd5b5f5f5f8481526020019081526020015f2090506110b28133611551565b6110f1576040517f08c379a00000000000000000000000000000000000000000000000000000000081526004016110e89061301c565b60405180910390fd5b806006015f3373ffffffffffffffffffffffffffffffffffffffff1673ffffffffffffffffffffffffffffffffffffffff1681526020019081526020015f205f9054906101000a900460ff161561117d576040517f08c379a000000000000000000000000000000000000000000000000000000000815260040161117490613084565b60405180910390fd5b6003816008015f9054906101000a900460ff1660ff16106111d3576040517f08c379a00000000000000000000000000000000000000000000000000000000081526004016111ca906130ec565b60405180910390fd5b5f6111e6836111e19061319b565b6117f8565b90505f611205826111f7600161139e565b6112005f61139e565b61181f565b9050611215836007015482611881565b836007018190555061122a8360070154611431565b6001836006015f3373ffffffffffffffffffffffffffffffffffffffff1673ffffffffffffffffffffffffffffffffffffffff1681526020019081526020015f205f6101000a81548160ff021916908315150217905550826008015f81819054906101000a900460ff16809291906112a1906131ad565b91906101000a81548160ff021916908360ff160217905550503373ffffffffffffffffffffffffffffffffffffffff16857feba4866100b822f0f391e610e7edfab790b9e8766c0012733c26b2f1858e8dd7856008015f9054906101000a900460ff1660405161131191906131d5565b60405180910390a36003836008015f9054906101000a900460ff1660ff160361136257847f5116952366f0daa625bdec0c8e55be667c0df8ff831c4a17f2146408ec1172e860405160405180910390a25b5050505050565b5f60015482109050919050565b5f611386826040015160046118ca565b6113976113928361191a565b61195c565b9050919050565b5f6113a9825f6119f5565b9050919050565b73ea30c4b8b44078bbf8a6ef5b9f1ec1626c7848d973ffffffffffffffffffffffffffffffffffffffff166365d0509c825f1c306040518363ffffffff1660e01b81526004016114019291906131ee565b5f604051808303815f87803b158015611418575f5ffd5b505af115801561142a573d5f5f3e3d5ffd5b5050505050565b73ea30c4b8b44078bbf8a6ef5b9f1ec1626c7848d973ffffffffffffffffffffffffffffffffffffffff166365d0509c825f1c306040518363ffffffff1660e01b81526004016114829291906131ee565b5f604051808303815f87803b158015611499575f5ffd5b505af11580156114ab573d5f5f3e3d5ffd5b5050505050565b6114cd83836114c1575f6114c4565b60015b60ff1683611a0f565b505050565b73ea30c4b8b44078bbf8a6ef5b9f1ec1626c7848d973ffffffffffffffffffffffffffffffffffffffff166334ef1e5a825f1c6040518263ffffffff1660e01b8152600401611521919061250a565b5f604051808303815f87803b158015611538575f5ffd5b505af115801561154a573d5f5f3e3d5ffd5b5050505050565b5f826003015f600381106115685761156761293b565b5b015f9054906101000a900473ffffffffffffffffffffffffffffffffffffffff1673ffffffffffffffffffffffffffffffffffffffff168273ffffffffffffffffffffffffffffffffffffffff1614806116245750826003016001600381106115d4576115d361293b565b5b015f9054906101000a900473ffffffffffffffffffffffffffffffffffffffff1673ffffffffffffffffffffffffffffffffffffffff168273ffffffffffffffffffffffffffffffffffffffff16145b806116915750826003016002600381106116415761164061293b565b5b015f9054906101000a900473ffffffffffffffffffffffffffffffffffffffff1673ffffffffffffffffffffffffffffffffffffffff168273ffffffffffffffffffffffffffffffffffffffff16145b905092915050565b5f6116a383611a94565b6116b3576116b05f61139e565b92505b6116bc82611a94565b6116cc576116c95f61139e565b91505b6116da600284846012611aa5565b905092915050565b73ea30c4b8b44078bbf8a6ef5b9f1ec1626c7848d973ffffffffffffffffffffffffffffffffffffffff166365d0509c825f1c306040518363ffffffff1660e01b81526004016117339291906131ee565b5f604051808303815f87803b15801561174a575f5ffd5b505af115801561175c573d5f5f3e3d5ffd5b5050505050565b73ea30c4b8b44078bbf8a6ef5b9f1ec1626c7848d973ffffffffffffffffffffffffffffffffffffffff166334ef1e5a825f1c6040518263ffffffff1660e01b81526004016117b2919061250a565b5f604051808303815f87803b1580156117c9575f5ffd5b505af11580156117db573d5f5f3e3d5ffd5b5050505050565b6117f3838363ffffffff1683611a0f565b505050565b5f61180782604001515f6118ca565b61181861181383611b96565b61195c565b9050919050565b5f61182984611bd7565b611839576118365f611be8565b93505b61184283611a94565b6118525761184f5f61139e565b92505b61185b82611a94565b61186b576118685f61139e565b91505b6118786002858585611bfa565b90509392505050565b5f61188b83611a94565b61189b576118985f61139e565b92505b6118a482611a94565b6118b4576118b15f61139e565b91505b6118c2600284846008611aa5565b905092915050565b8060ff168260ff16146119165781816040517f67cf307100000000000000000000000000000000000000000000000000000000815260040161190d929190613215565b60405180910390fd5b5050565b61192261216a565b6040518060800160405280835f01518152602001836020015160ff168152602001600460ff16815260200183606001518152509050919050565b5f73ea30c4b8b44078bbf8a6ef5b9f1ec1626c7848d973ffffffffffffffffffffffffffffffffffffffff166327f9c76283336040518363ffffffff1660e01b81526004016119ac92919061331a565b6020604051808303815f875af11580156119c8573d5f5f3e3d5ffd5b505050506040513d601f19601f820116820180604052508101906119ec919061335c565b5f1b9050919050565b5f5f611a0384600285611ced565b90508091505092915050565b73ea30c4b8b44078bbf8a6ef5b9f1ec1626c7848d973ffffffffffffffffffffffffffffffffffffffff166318683701845f1c84846040518463ffffffff1660e01b8152600401611a62939291906133cf565b5f604051808303815f87803b158015611a79575f5ffd5b505af1158015611a8b573d5f5f3e3d5ffd5b50505050505050565b5f611a9e82611dea565b9050919050565b5f73ea30c4b8b44078bbf8a6ef5b9f1ec1626c7848d973ffffffffffffffffffffffffffffffffffffffff16631888debd8684611ae28888611df8565b5f67ffffffffffffffff811115611afc57611afb612bbb565b5b604051908082528060200260200182016040528015611b2a5781602001602082028036833780820191505090505b506040518563ffffffff1660e01b8152600401611b4a9493929190613526565b6020604051808303815f875af1158015611b66573d5f5f3e3d5ffd5b505050506040513d601f19601f82011682018060405250810190611b8a919061335c565b5f1b9050949350505050565b611b9e61216a565b6040518060800160405280835f01518152602001836020015160ff1681526020015f60ff16815260200183606001518152509050919050565b5f611be182611dea565b9050919050565b5f611bf3825f611e96565b9050919050565b5f73ea30c4b8b44078bbf8a6ef5b9f1ec1626c7848d973ffffffffffffffffffffffffffffffffffffffff16631888debd866004611c39888888611ebf565b5f67ffffffffffffffff811115611c5357611c52612bbb565b5b604051908082528060200260200182016040528015611c815781602001602082028036833780820191505090505b506040518563ffffffff1660e01b8152600401611ca19493929190613526565b6020604051808303815f875af1158015611cbd573d5f5f3e3d5ffd5b505050506040513d601f19601f82011682018060405250810190611ce1919061335c565b5f1b9050949350505050565b5f73ea30c4b8b44078bbf8a6ef5b9f1ec1626c7848d973ffffffffffffffffffffffffffffffffffffffff16631888debd84601a5f67ffffffffffffffff811115611d3b57611d3a612bbb565b5b604051908082528060200260200182016040528015611d695781602001602082028036833780820191505090505b50611d80898960ff16611d7b8a611f81565b611fd8565b6040518563ffffffff1660e01b8152600401611d9f9493929190613526565b6020604051808303815f875af1158015611dbb573d5f5f3e3d5ffd5b505050506040513d601f19601f82011682018060405250810190611ddf919061335c565b5f1b90509392505050565b5f5f5f1b8214159050919050565b60605f600267ffffffffffffffff811115611e1657611e15612bbb565b5b604051908082528060200260200182016040528015611e445781602001602082028036833780820191505090505b509050835f1c815f81518110611e5d57611e5c61293b565b5b602002602001018181525050825f1c81600181518110611e8057611e7f61293b565b5b6020026020010181815250508091505092915050565b5f5f5f90508315611ea657600190505b5f611eb2825f86611ced565b9050809250505092915050565b60605f600367ffffffffffffffff811115611edd57611edc612bbb565b5b604051908082528060200260200182016040528015611f0b5781602001602082028036833780820191505090505b509050845f1c815f81518110611f2457611f2361293b565b5b602002602001018181525050835f1c81600181518110611f4757611f4661293b565b5b602002602001018181525050825f1c81600281518110611f6a57611f6961293b565b5b602002602001018181525050809150509392505050565b5f5f8260030b1215611fca57816040517f8f568bf8000000000000000000000000000000000000000000000000000000008152600401611fc19190613592565b60405180910390fd5b8163ffffffff169050919050565b60605f600367ffffffffffffffff811115611ff657611ff5612bbb565b5b6040519080825280602002602001820160405280156120245781602001602082028036833780820191505090505b50905084815f8151811061203b5761203a61293b565b5b602002602001018181525050838160018151811061205c5761205b61293b565b5b602002602001018181525050828160028151811061207d5761207c61293b565b5b602002602001018181525050809150509392505050565b6040518060600160405280600390602082028036833780820191505090505090565b6040518060600160405280600390602082028036833780820191505090505090565b8260038101928215612159579160200282015b8281111561215857823573ffffffffffffffffffffffffffffffffffffffff16825f6101000a81548173ffffffffffffffffffffffffffffffffffffffff021916908373ffffffffffffffffffffffffffffffffffffffff160217905550916020019190600101906120eb565b5b5090506121669190612195565b5090565b60405180608001604052805f81526020015f60ff1681526020015f60ff168152602001606081525090565b5b808211156121ac575f815f905550600101612196565b5090565b5f604051905090565b5f5ffd5b5f5ffd5b5f819050919050565b6121d3816121c1565b81146121dd575f5ffd5b50565b5f813590506121ee816121ca565b92915050565b5f60208284031215612209576122086121b9565b5b5f612216848285016121e0565b91505092915050565b5f60039050919050565b5f81905092915050565b5f819050919050565b5f73ffffffffffffffffffffffffffffffffffffffff82169050919050565b5f6122658261223c565b9050919050565b6122758161225b565b82525050565b5f612286838361226c565b60208301905092915050565b5f602082019050919050565b6122a78161221f565b6122b18184612229565b92506122bc82612233565b805f5b838110156122ec5781516122d3878261227b565b96506122de83612292565b9250506001810190506122bf565b505050505050565b5f60039050919050565b5f81905092915050565b5f819050919050565b5f8115159050919050565b61232581612311565b82525050565b5f612336838361231c565b60208301905092915050565b5f602082019050919050565b612357816122f4565b61236181846122fe565b925061236c82612308565b805f5b8381101561239c578151612383878261232b565b965061238e83612342565b92505060018101905061236f565b505050505050565b5f60c0820190506123b75f83018561229e565b6123c4606083018461234e565b9392505050565b5f819050919050565b6123dd816123cb565b81146123e7575f5ffd5b50565b5f813590506123f8816123d4565b92915050565b5f5ffd5b5f60808284031215612417576124166123fe565b5b81905092915050565b5f60ff82169050919050565b61243581612420565b811461243f575f5ffd5b50565b5f813590506124508161242c565b92915050565b5f5ffd5b5f8190508260206003028201111561247557612474612456565b5b92915050565b5f5f5f5f60c08587031215612493576124926121b9565b5b5f6124a0878288016123ea565b945050602085013567ffffffffffffffff8111156124c1576124c06121bd565b5b6124cd87828801612402565b93505060406124de87828801612442565b92505060606124ef8782880161245a565b91505092959194509250565b612504816121c1565b82525050565b5f60208201905061251d5f8301846124fb565b92915050565b61252c8161225b565b8114612536575f5ffd5b50565b5f8135905061254781612523565b92915050565b5f5f60408385031215612563576125626121b9565b5b5f612570858286016121e0565b925050602061258185828601612539565b9150509250929050565b61259481612311565b82525050565b5f6020820190506125ad5f83018461258b565b92915050565b6125bc81612311565b81146125c6575f5ffd5b50565b5f813590506125d7816125b3565b92915050565b5f5ffd5b5f5ffd5b5f5f83601f8401126125fa576125f96125dd565b5b8235905067ffffffffffffffff811115612617576126166125e1565b5b60208301915083600182028301111561263357612632612456565b5b9250929050565b5f5f5f5f60608587031215612652576126516121b9565b5b5f61265f878288016121e0565b9450506020612670878288016125c9565b935050604085013567ffffffffffffffff811115612691576126906121bd565b5b61269d878288016125e5565b925092505092959194509250565b6126b4816123cb565b82525050565b5f6126c4826123cb565b9050919050565b6126d4816126ba565b82525050565b6126e381612420565b82525050565b6126f2816126ba565b82525050565b612701816126ba565b82525050565b6127108161225b565b82525050565b5f6101208201905061272a5f83018c6126ab565b612737602083018b6126cb565b612744604083018a6126da565b61275160608301896126e9565b61275e60808301886126da565b61276b60a08301876126f8565b61277860c083018661258b565b61278560e083018561258b565b612793610100830184612707565b9a9950505050505050505050565b5f63ffffffff82169050919050565b6127b9816127a1565b81146127c3575f5ffd5b50565b5f813590506127d4816127b0565b92915050565b5f5f5f5f606085870312156127f2576127f16121b9565b5b5f6127ff878288016121e0565b9450506020612810878288016127c6565b935050604085013567ffffffffffffffff811115612831576128306121bd565b5b61283d878288016125e5565b925092505092959194509250565b5f608082840312156128605761285f6123fe565b5b81905092915050565b5f5f6040838503121561287f5761287e6121b9565b5b5f61288c858286016121e0565b925050602083013567ffffffffffffffff8111156128ad576128ac6121bd565b5b6128b98582860161284b565b9150509250929050565b5f82825260208201905092915050565b7f7061706572206e6f7420666f756e6400000000000000000000000000000000005f82015250565b5f612907600f836128c3565b9150612912826128d3565b602082019050919050565b5f6020820190508181035f830152612934816128fb565b9050919050565b7f4e487b71000000000000000000000000000000000000000000000000000000005f52603260045260245ffd5b7f656d7074792070617065722068617368000000000000000000000000000000005f82015250565b5f61299c6010836128c3565b91506129a782612968565b602082019050919050565b5f6020820190508181035f8301526129c981612990565b9050919050565b7f696e76616c69642067726f712073636f726500000000000000000000000000005f82015250565b5f612a046012836128c3565b9150612a0f826129d0565b602082019050919050565b5f6020820190508181035f830152612a31816129f8565b9050919050565b5f60208284031215612a4d57612a4c6121b9565b5b5f612a5a84828501612539565b91505092915050565b7f7a65726f207265766965776572000000000000000000000000000000000000005f82015250565b5f612a97600d836128c3565b9150612aa282612a63565b602082019050919050565b5f6020820190508181035f830152612ac481612a8b565b9050919050565b7f6475706c696361746520726576696577657200000000000000000000000000005f82015250565b5f612aff6012836128c3565b9150612b0a82612acb565b602082019050919050565b5f6020820190508181035f830152612b2c81612af3565b9050919050565b7f4e487b71000000000000000000000000000000000000000000000000000000005f52601160045260245ffd5b5f612b6a826121c1565b91507fffffffffffffffffffffffffffffffffffffffffffffffffffffffffffffffff8203612b9c57612b9b612b33565b5b600182019050919050565b5f5ffd5b5f601f19601f8301169050919050565b7f4e487b71000000000000000000000000000000000000000000000000000000005f52604160045260245ffd5b612bf182612bab565b810181811067ffffffffffffffff82111715612c1057612c0f612bbb565b5b80604052505050565b5f612c226121b0565b9050612c2e8282612be8565b919050565b5f5ffd5b5f5ffd5b5f67ffffffffffffffff821115612c5557612c54612bbb565b5b612c5e82612bab565b9050602081019050919050565b828183375f83830152505050565b5f612c8b612c8684612c3b565b612c19565b905082815260208101848484011115612ca757612ca6612c37565b5b612cb2848285612c6b565b509392505050565b5f82601f830112612cce57612ccd6125dd565b5b8135612cde848260208601612c79565b91505092915050565b5f60808284031215612cfc57612cfb612ba7565b5b612d066080612c19565b90505f612d15848285016121e0565b5f830152506020612d2884828501612442565b6020830152506040612d3c84828501612442565b604083015250606082013567ffffffffffffffff811115612d6057612d5f612c33565b5b612d6c84828501612cba565b60608301525092915050565b5f612d833683612ce7565b9050919050565b5f604082019050612d9d5f8301856126ab565b612daa60208301846126da565b9392505050565b7f76657264696374206e6f742072657175657374656400000000000000000000005f82015250565b5f612de56015836128c3565b9150612df082612db1565b602082019050919050565b5f6020820190508181035f830152612e1281612dd9565b9050919050565b7f616c72656164792072657665616c6564000000000000000000000000000000005f82015250565b5f612e4d6010836128c3565b9150612e5882612e19565b602082019050919050565b5f6020820190508181035f830152612e7a81612e41565b9050919050565b7f766f74696e6720696e636f6d706c6574650000000000000000000000000000005f82015250565b5f612eb56011836128c3565b9150612ec082612e81565b602082019050919050565b5f6020820190508181035f830152612ee281612ea9565b9050919050565b7f7665726469637420616c726561647920726571756573746564000000000000005f82015250565b5f612f1d6019836128c3565b9150612f2882612ee9565b602082019050919050565b5f6020820190508181035f830152612f4a81612f11565b9050919050565b7f63616e6e6f742072657665616c206964656e74697479000000000000000000005f82015250565b5f612f856016836128c3565b9150612f9082612f51565b602082019050919050565b5f6020820190508181035f830152612fb281612f79565b9050919050565b5f602082019050612fcc5f830184612707565b92915050565b7f6e6f742061737369676e656420726576696577657200000000000000000000005f82015250565b5f6130066015836128c3565b915061301182612fd2565b602082019050919050565b5f6020820190508181035f83015261303381612ffa565b9050919050565b7f616c726561647920766f746564000000000000000000000000000000000000005f82015250565b5f61306e600d836128c3565b91506130798261303a565b602082019050919050565b5f6020820190508181035f83015261309b81613062565b9050919050565b7f72657669657720636f6d706c65746500000000000000000000000000000000005f82015250565b5f6130d6600f836128c3565b91506130e1826130a2565b602082019050919050565b5f6020820190508181035f830152613103816130ca565b9050919050565b5f6080828403121561311f5761311e612ba7565b5b6131296080612c19565b90505f613138848285016121e0565b5f83015250602061314b84828501612442565b602083015250604061315f84828501612442565b604083015250606082013567ffffffffffffffff81111561318357613182612c33565b5b61318f84828501612cba565b60608301525092915050565b5f6131a6368361310a565b9050919050565b5f6131b782612420565b915060ff82036131ca576131c9612b33565b5b600182019050919050565b5f6020820190506131e85f8301846126da565b92915050565b5f6040820190506132015f8301856124fb565b61320e6020830184612707565b9392505050565b5f6040820190506132285f8301856126da565b61323560208301846126da565b9392505050565b613245816121c1565b82525050565b61325481612420565b82525050565b5f81519050919050565b5f82825260208201905092915050565b8281835e5f83830152505050565b5f61328c8261325a565b6132968185613264565b93506132a6818560208601613274565b6132af81612bab565b840191505092915050565b5f608083015f8301516132cf5f86018261323c565b5060208301516132e2602086018261324b565b5060408301516132f5604086018261324b565b506060830151848203606086015261330d8282613282565b9150508091505092915050565b5f6040820190508181035f83015261333281856132ba565b90506133416020830184612707565b9392505050565b5f81519050613356816121ca565b92915050565b5f60208284031215613371576133706121b9565b5b5f61337e84828501613348565b91505092915050565b5f82825260208201905092915050565b5f6133a18261325a565b6133ab8185613387565b93506133bb818560208601613274565b6133c481612bab565b840191505092915050565b5f6060820190506133e25f8301866124fb565b6133ef60208301856124fb565b81810360408301526134018184613397565b9050949350505050565b7f4e487b71000000000000000000000000000000000000000000000000000000005f52602160045260245ffd5b602081106134495761344861340b565b5b50565b5f81905061345982613438565b919050565b5f6134688261344c565b9050919050565b6134788161345e565b82525050565b5f81519050919050565b5f82825260208201905092915050565b5f819050602082019050919050565b5f6134b2838361323c565b60208301905092915050565b5f602082019050919050565b5f6134d48261347e565b6134de8185613488565b93506134e983613498565b805f5b8381101561351957815161350088826134a7565b975061350b836134be565b9250506001810190506134ec565b5085935050505092915050565b5f6080820190506135395f8301876126da565b613546602083018661346f565b818103604083015261355881856134ca565b9050818103606083015261356c81846134ca565b905095945050505050565b5f8160030b9050919050565b61358c81613577565b82525050565b5f6020820190506135a55f830184613583565b9291505056fea26469706673582212207c6f10ce0e034de5b7272f1968c94a1e55dfce6bbb5a639d2124b7b2a8a484da64736f6c634300081c0033",
  "linkReferences": {},
  "deployedLinkReferences": {}
}