{
  "_format": "hh-sol-artifact-1",
  "contractName": "EncryptedReviewPool",
  "sourceName": "contracts/EncryptedReviewPool.sol",
  "abi": [
    {
      "inputs": [
        {
          "internalType": "uint8",
          "name": "got",
          "type": "uint8"
        },
        {
          "internalType": "uint8",
          "name": "expected",
          "type": "uint8"
        }
      ],
      "name": "InvalidEncryptedInput",
      "type": "error"
    },
    {
      "inputs": [
        {
          "internalType": "int32",
          "name": "value",
          "type": "int32"
        }
      ],
      "name": "SecurityZoneOutOfBounds",
      "type": "error"
    },
    {
      "anonymous": false,
      "inputs": [
        {
          "indexed": true,
          "internalType": "address",
          "name": "author",
          "type": "address"
        },
        {
          "indexed": true,
          "internalType": "bytes32",
          "name": "paperHash",
          "type": "bytes32"
        }
      ],
      "name": "IdeaSubmitted",
      "type": "event"
    },
    {
      "anonymous": false,
      "inputs": [
        {
          "indexed": true,
          "internalType": "uint256",
          "name": "paperId",
          "type": "uint256"
        },
        {
          "indexed": false,
          "internalType": "address",
          "name": "author",
          "type": "address"
        }
      ],
      "name": "IdentityRevealed",
      "type": "event"
    },
    {
      "anonymous": false,
      "inputs": [
        {
          "indexed": true,
          "internalType": "address",
          "name": "author",
          "type": "address"
        },
        {
          "indexed": true,
          "internalType": "bytes32",
          "name": "paperHash",
          "type": "bytes32"
        }
      ],
      "name": "PaperEncryptionApproved",
      "type": "event"
    },
    {
      "anonymous": false,
      "inputs": [
        {
          "indexed": true,
          "internalType": "uint256",
          "name": "paperId",
          "type": "uint256"
        },
        {
          "indexed": false,
          "internalType": "bytes32",
          "name": "paperHash",
          "type": "bytes32"
        },
        {
          "indexed": false,
          "internalType": "uint8",
          "name": "groqScore",
          "type": "uint8"
        }
      ],
      "name": "PaperSubmitted",
      "type": "event"
    },
    {
      "anonymous": false,
      "inputs": [
        {
          "indexed": true,
          "internalType": "uint256",
          "name": "paperId",
          "type": "uint256"
        }
      ],
      "name": "VerdictReady",
      "type": "event"
    },
    {
      "anonymous": false,
      "inputs": [
        {
          "indexed": true,
          "internalType": "uint256",
          "name": "paperId",
          "type": "uint256"
        }
      ],
      "name": "VerdictRequested",
      "type": "event"
    },
    {
      "anonymous": false,
      "inputs": [
        {
          "indexed": true,
          "internalType": "uint256",
          "name": "paperId",
          "type": "uint256"
        },
        {
          "indexed": false,
          "internalType": "bool",
          "name": "accepted",
          "type": "bool"
        }
      ],
      "name": "VerdictRevealed",
      "type": "event"
    },
    {
      "anonymous": false,
      "inputs": [
        {
          "indexed": true,
          "internalType": "uint256",
          "name": "paperId",
          "type": "uint256"
        },
        {
          "indexed": true,
          "internalType": "address",
          "name": "reviewer",
          "type": "address"
        },
        {
          "indexed": false,
          "internalType": "uint8",
          "name": "votesIn",
          "type": "uint8"
        }
      ],
      "name": "VoteCast",
      "type": "event"
    },
    {
      "inputs": [
        {
          "internalType": "bytes32",
          "name": "paperHash",
          "type": "bytes32"
        }
      ],
      "name": "approvePaperEncryption",
      "outputs": [],
      "stateMutability": "nonpayable",
      "type": "function"
    },
    {
      "inputs": [
        {
          "internalType": "address",
          "name": "",
          "type": "address"
        },
        {
          "internalType": "bytes32",
          "name": "",
          "type": "bytes32"
        }
      ],
      "name": "encryptionApproved",
      "outputs": [
        {
          "internalType": "bool",
          "name": "",
          "type": "bool"
        }
      ],
      "stateMutability": "view",
      "type": "function"
    },
    {
      "inputs": [
        {
          "internalType": "uint256",
          "name": "paperId",
          "type": "uint256"
        },
        {
          "internalType": "address",
          "name": "reviewer",
          "type": "address"
        }
      ],
      "name": "hasVoted",
      "outputs": [
        {
          "internalType": "bool",
          "name": "",
          "type": "bool"
        }
      ],
      "stateMutability": "view",
      "type": "function"
    },
    {
      "inputs": [
        {
          "internalType": "address",
          "name": "",
          "type": "address"
        },
        {
          "internalType": "bytes32",
          "name": "",
          "type": "bytes32"
        }
      ],
      "name": "ideaSubmitted",
      "outputs": [
        {
          "internalType": "bool",
          "name": "",
          "type": "bool"
        }
      ],
      "stateMutability": "view",
      "type": "function"
    },
    {
      "inputs": [
        {
          "internalType": "uint256",
          "name": "paperId",
          "type": "uint256"
        },
        {
          "internalType": "address",
          "name": "who",
          "type": "address"
        }
      ],
      "name": "isAssignedReviewer",
      "outputs": [
        {
          "internalType": "bool",
          "name": "",
          "type": "bool"
        }
      ],
      "stateMutability": "view",
      "type": "function"
    },
    {
      "inputs": [],
      "name": "paperCount",
      "outputs": [
        {
          "internalType": "uint256",
          "name": "",
          "type": "uint256"
        }
      ],
      "stateMutability": "view",
      "type": "function"
    },
    {
      "inputs": [
        {
          "internalType": "uint256",
          "name": "",
          "type": "uint256"
        }
      ],
      "name": "papers",
      "outputs": [
        {
          "internalType": "bytes32",
          "name": "paperHash",
          "type": "bytes32"
        },
        {
          "internalType": "euint32",
          "name": "encAuthorId",
          "type": "bytes32"
        },
        {
          "internalType": "uint8",
          "name": "groqScore",
          "type": "uint8"
        },
        {
          "internalType": "euint8",
          "name": "voteSum",
          "type": "bytes32"
        },
        {
          "internalType": "uint8",
          "name": "votesIn",
          "type": "uint8"
        },
        {
          "internalType": "ebool",
          "name": "passed",
          "type": "bytes32"
        },
        {
          "internalType": "bool",
          "name": "verdictRevealed",
          "type": "bool"
        },
        {
          "internalType": "bool",
          "name": "accepted",
          "type": "bool"
        },
        {
          "internalType": "address",
          "name": "author",
          "type": "address"
        }
      ],
      "stateMutability": "view",
      "type": "function"
    },
    {
      "inputs": [
        {
          "internalType": "uint256",
          "name": "paperId",
          "type": "uint256"
        }
      ],
      "name": "requestVerdict",
      "outputs": [],
      "stateMutability": "nonpayable",
      "type": "function"
    },
    {
      "inputs": [
        {
          "internalType": "uint256",
          "name": "paperId",
          "type": "uint256"
        },
        {
          "internalType": "uint32",
          "name": "authorId",
          "type": "uint32"
        },
        {
          "internalType": "bytes",
          "name": "signature",
          "type": "bytes"
        }
      ],
      "name": "revealIdentity",
      "outputs": [],
      "stateMutability": "nonpayable",
      "type": "function"
    },
    {
      "inputs": [
        {
          "internalType": "uint256",
          "name": "paperId",
          "type": "uint256"
        },
        {
          "internalType": "bool",
          "name": "plaintext",
          "type": "bool"
        },
        {
          "internalType": "bytes",
          "name": "signature",
          "type": "bytes"
        }
      ],
      "name": "revealVerdict",
      "outputs": [],
      "stateMutability": "nonpayable",
      "type": "function"
    },
    {
      "inputs": [
        {
          "internalType": "uint256",
          "name": "paperId",
          "type": "uint256"
        }
      ],
      "name": "reviewerStatuses",
      "outputs": [
        {
          "internalType": "address[3]",
          "name": "reviewers",
          "type": "address[3]"
        },
        {
          "internalType": "bool[3]",
          "name": "voted",
          "type": "bool[3]"
        }
      ],
      "stateMutability": "view",
      "type": "function"
    },
    {
      "inputs": [
        {
          "internalType": "bytes32",
          "name": "paperHash",
          "type": "bytes32"
        }
      ],
      "name": "submitIdeaForReview",
      "outputs": [],
      "stateMutability": "nonpayable",
      "type": "function"
    },
    {
      "inputs": [
        {
          "internalType": "bytes32",
          "name": "paperHash",
          "type": "bytes32"
        },
        {
          "components": [
            {
              "internalType": "uint256",
              "name": "ctHash",
              "type": "uint256"
            },
            {
              "internalType": "uint8",
              "name": "securityZone",
              "type": "uint8"
            },
            {
              "internalType": "uint8",
              "name": "utype",
              "type": "uint8"
            },
            {
              "internalType": "bytes",
              "name": "signature",
              "type": "bytes"
            }
          ],
          "internalType": "struct InEuint32",
          "name": "encAuthorId",
          "type": "tuple"
        },
        {
          "internalType": "uint8",
          "name": "groqScore",
          "type": "uint8"
        },
        {
          "internalType": "address[3]",
          "name": "reviewers",
          "type": "address[3]"
        }
      ],
      "name": "submitPaper",
      "outputs": [
        {
          "internalType": "uint256",
          "name": "paperId",
          "type": "uint256"
        }
      ],
      "stateMutability": "nonpayable",
      "type": "function"
    },
    {
      "inputs": [
        {
          "internalType": "uint256",
          "name": "paperId",
          "type": "uint256"
        },
        {
          "components": [
            {
              "internalType": "uint256",
              "name": "ctHash",
              "type": "uint256"
            },
            {
              "internalType": "uint8",
              "name": "securityZone",
              "type": "uint8"
            },
            {
              "internalType": "uint8",
              "name": "utype",
              "type": "uint8"
            },
            {
              "internalType": "bytes",
              "name": "signature",
              "type": "bytes"
            }
          ],
          "internalType": "struct InEbool",
          "name": "encApprove",
          "type": "tuple"
        }
      ],
      "name": "submitVote",
      "outputs": [],
      "stateMutability": "nonpayable",
      "type": "function"
    }
  ],
  "bytecode": "0x6080604052348015600e575f5ffd5b50613bf88061001c5f395ff3fe608060405234801561000f575f5ffd5b50600436106100e8575f3560e01c8063b9309d391161008a578063de46f0f111610064578063de46f0f114610287578063e57eb5ae146102a3578063fb9b1992146102bf578063fbf43fd1146102ef576100e8565b8063b9309d391461020b578063ba75d3b814610227578063bc1bd27a14610257576100e8565b806346d73ac3116100c657806346d73ac31461017d5780635e775a2714610199578063a56c2cb9146101d1578063acdac4fa146101ef576100e8565b8063127e2e4e146100ec578063366462511461011d578063438596321461014d575b5f5ffd5b610106600480360381019061010191906126d2565b61030b565b604051610114929190612882565b60405180910390f35b61013760048036038101906101329190612959565b6105a1565b60405161014491906129e8565b60405180910390f35b61016760048036038101906101629190612a2b565b610bac565b6040516101749190612a78565b60405180910390f35b61019760048036038101906101929190612b18565b610c58565b005b6101b360048036038101906101ae91906126d2565b610e29565b6040516101c899989796959493929190612bf4565b60405180910390f35b6101d9610ec3565b6040516101e691906129e8565b60405180910390f35b61020960048036038101906102049190612c7f565b610ec9565b005b61022560048036038101906102209190612c7f565b610fb8565b005b610241600480360381019061023c9190612caa565b61113f565b60405161024e9190612a78565b60405180910390f35b610271600480360381019061026c9190612a2b565b611169565b60405161027e9190612a78565b60405180910390f35b6102a1600480360381019061029c91906126d2565b6111d3565b005b6102bd60048036038101906102b89190612d21565b611387565b005b6102d960048036038101906102d49190612caa565b611501565b6040516102e69190612a78565b60405180910390f35b61030960048036038101906103049190612db0565b61152b565b005b610313612572565b61031b612594565b61032483611847565b610363576040517f08c379a000000000000000000000000000000000000000000000000000000000815260040161035a90612e64565b60405180910390fd5b5f5f5f8581526020019081526020015f209050806003016003806020026040519081016040528092919082600380156103e6576020028201915b815f9054906101000a900473ffffffffffffffffffffffffffffffffffffffff1673ffffffffffffffffffffffffffffffffffffffff168152602001906001019080831161039d575b505050505092506040518060600160405280826006015f846003015f6003811061041357610412612e82565b5b015f9054906101000a900473ffffffffffffffffffffffffffffffffffffffff1673ffffffffffffffffffffffffffffffffffffffff1673ffffffffffffffffffffffffffffffffffffffff1681526020019081526020015f205f9054906101000a900460ff16151515158152602001826006015f8460030160016003811061049f5761049e612e82565b5b015f9054906101000a900473ffffffffffffffffffffffffffffffffffffffff1673ffffffffffffffffffffffffffffffffffffffff1673ffffffffffffffffffffffffffffffffffffffff1681526020019081526020015f205f9054906101000a900460ff16151515158152602001826006015f8460030160026003811061052b5761052a612e82565b5b015f9054906101000a900473ffffffffffffffffffffffffffffffffffffffff1673ffffffffffffffffffffffffffffffffffffffff1673ffffffffffffffffffffffffffffffffffffffff1681526020019081526020015f205f9054906101000a900460ff1615151515815250915050915091565b5f5f5f1b85036105e6576040517f08c379a00000000000000000000000000000000000000000000000000000000081526004016105dd90612ef9565b60405180910390fd5b60025f3373ffffffffffffffffffffffffffffffffffffffff1673ffffffffffffffffffffffffffffffffffffffff1681526020019081526020015f205f8681526020019081526020015f205f9054906101000a900460ff1661067e576040517f08c379a000000000000000000000000000000000000000000000000000000000815260040161067590612f61565b60405180910390fd5b60035f3373ffffffffffffffffffffffffffffffffffffffff1673ffffffffffffffffffffffffffffffffffffffff1681526020019081526020015f205f8681526020019081526020015f205f9054906101000a900460ff16610716576040517f08c379a000000000000000000000000000000000000000000000000000000000815260040161070d90612fc9565b60405180910390fd5b60018360ff161015801561072e5750600a8360ff1611155b61076d576040517f08c379a000000000000000000000000000000000000000000000000000000000815260040161076490613031565b60405180910390fd5b5f73ffffffffffffffffffffffffffffffffffffffff16825f6003811061079757610796612e82565b5b6020020160208101906107aa919061304f565b73ffffffffffffffffffffffffffffffffffffffff161415801561082057505f73ffffffffffffffffffffffffffffffffffffffff16826001600381106107f4576107f3612e82565b5b602002016020810190610807919061304f565b73ffffffffffffffffffffffffffffffffffffffff1614155b801561087e57505f73ffffffffffffffffffffffffffffffffffffffff168260026003811061085257610851612e82565b5b602002016020810190610865919061304f565b73ffffffffffffffffffffffffffffffffffffffff1614155b6108bd576040517f08c379a00000000000000000000000000000000000000000000000000000000081526004016108b4906130c4565b60405180910390fd5b816001600381106108d1576108d0612e82565b5b6020020160208101906108e4919061304f565b73ffffffffffffffffffffffffffffffffffffffff16825f6003811061090d5761090c612e82565b5b602002016020810190610920919061304f565b73ffffffffffffffffffffffffffffffffffffffff16141580156109bb57508160026003811061095357610952612e82565b5b602002016020810190610966919061304f565b73ffffffffffffffffffffffffffffffffffffffff16825f6003811061098f5761098e612e82565b5b6020020160208101906109a2919061304f565b73ffffffffffffffffffffffffffffffffffffffff1614155b8015610a3f5750816002600381106109d6576109d5612e82565b5b6020020160208101906109e9919061304f565b73ffffffffffffffffffffffffffffffffffffffff1682600160038110610a1357610a12612e82565b5b602002016020810190610a26919061304f565b73ffffffffffffffffffffffffffffffffffffffff1614155b610a7e576040517f08c379a0000000000000000000000000000000000000000000000000000000008152600401610a759061312c565b60405180910390fd5b60015f815480929190610a9090613177565b9190505590505f5f5f8381526020019081526020015f20905085815f0181905550610ac385610abe9061338f565b611854565b816001018190555083816002015f6101000a81548160ff021916908360ff1602179055508281600301906003610afa9291906125b6565b503381600a0160026101000a81548173ffffffffffffffffffffffffffffffffffffffff021916908373ffffffffffffffffffffffffffffffffffffffff160217905550610b475f61187c565b8160070181905550610b5c816001015461188e565b610b69816007015461190f565b817f90f4cc9bd769cf7b644ab13b328adb00dcbfccf241829a921f96f69f8529e3408786604051610b9b9291906133a1565b60405180910390a250949350505050565b5f610bb683611847565b610bf5576040517f08c379a0000000000000000000000000000000000000000000000000000000008152600401610bec90612e64565b60405180910390fd5b5f5f8481526020019081526020015f206006015f8373ffffffffffffffffffffffffffffffffffffffff1673ffffffffffffffffffffffffffffffffffffffff1681526020019081526020015f205f9054906101000a900460ff16905092915050565b610c6184611847565b610ca0576040517f08c379a0000000000000000000000000000000000000000000000000000000008152600401610c9790612e64565b60405180910390fd5b5f5f5f8681526020019081526020015f2090505f5f1b816009015403610cfb576040517f08c379a0000000000000000000000000000000000000000000000000000000008152600401610cf290613412565b60405180910390fd5b80600a015f9054906101000a900460ff1615610d4c576040517f08c379a0000000000000000000000000000000000000000000000000000000008152600401610d439061347a565b60405180910390fd5b610d9e81600901548585858080601f0160208091040260200160405190810160405280939291908181526020018383808284375f81840152601f19601f82011690508083019250505050505050611990565b600181600a015f6101000a81548160ff0219169083151502179055508381600a0160016101000a81548160ff021916908315150217905550847f987fae0f90f7405436c3a534c0fb96e0882244bbf7a4221db73e5130470b0bcd85604051610e069190612a78565b60405180910390a28315610e2257610e2181600101546119b0565b5b5050505050565b5f602052805f5260405f205f91509050805f015490806001015490806002015f9054906101000a900460ff1690806007015490806008015f9054906101000a900460ff169080600901549080600a015f9054906101000a900460ff169080600a0160019054906101000a900460ff169080600a0160029054906101000a900473ffffffffffffffffffffffffffffffffffffffff16905089565b60015481565b5f5f1b8103610f0d576040517f08c379a0000000000000000000000000000000000000000000000000000000008152600401610f0490612ef9565b60405180910390fd5b600160025f3373ffffffffffffffffffffffffffffffffffffffff1673ffffffffffffffffffffffffffffffffffffffff1681526020019081526020015f205f8381526020019081526020015f205f6101000a81548160ff021916908315150217905550803373ffffffffffffffffffffffffffffffffffffffff167fd6ce5d27d1dbfa1742bd08120d9d505c169cdc32041ed1815856b881da663d4060405160405180910390a350565b5f5f1b8103610ffc576040517f08c379a0000000000000000000000000000000000000000000000000000000008152600401610ff390612ef9565b60405180910390fd5b60025f3373ffffffffffffffffffffffffffffffffffffffff1673ffffffffffffffffffffffffffffffffffffffff1681526020019081526020015f205f8281526020019081526020015f205f9054906101000a900460ff16611094576040517f08c379a000000000000000000000000000000000000000000000000000000000815260040161108b90612f61565b60405180910390fd5b600160035f3373ffffffffffffffffffffffffffffffffffffffff1673ffffffffffffffffffffffffffffffffffffffff1681526020019081526020015f205f8381526020019081526020015f205f6101000a81548160ff021916908315150217905550803373ffffffffffffffffffffffffffffffffffffffff167f83e42c45c25014d6c7f7d377641224b58cef73e4b5519367f1cd790248bc114960405160405180910390a350565b6002602052815f5260405f20602052805f5260405f205f915091509054906101000a900460ff1681565b5f61117383611847565b6111b2576040517f08c379a00000000000000000000000000000000000000000000000000000000081526004016111a990612e64565b60405180910390fd5b6111cb5f5f8581526020019081526020015f2083611a2f565b905092915050565b6111dc81611847565b61121b576040517f08c379a000000000000000000000000000000000000000000000000000000000815260040161121290612e64565b60405180910390fd5b5f5f5f8381526020019081526020015f2090506003816008015f9054906101000a900460ff1660ff1614611284576040517f08c379a000000000000000000000000000000000000000000000000000000000815260040161127b906134e2565b60405180910390fd5b80600a015f9054906101000a900460ff16156112d5576040517f08c379a00000000000000000000000000000000000000000000000000000000081526004016112cc9061347a565b60405180910390fd5b5f5f1b81600901541461131d576040517f08c379a00000000000000000000000000000000000000000000000000000000081526004016113149061354a565b60405180910390fd5b611334816007015461132f600261187c565b611b77565b81600901819055506113498160090154611bc0565b6113568160090154611c41565b817fcbfcc7fc30b13dd9002cf19e5e3da7ec9d92dfb33a8882905adb30045397492e60405160405180910390a25050565b61139084611847565b6113cf576040517f08c379a00000000000000000000000000000000000000000000000000000000081526004016113c690612e64565b60405180910390fd5b5f5f5f8681526020019081526020015f20905080600a015f9054906101000a900460ff16801561140d575080600a0160019054906101000a900460ff165b61144c576040517f08c379a0000000000000000000000000000000000000000000000000000000008152600401611443906135b2565b60405180910390fd5b61149e81600101548585858080601f0160208091040260200160405190810160405280939291908181526020018383808284375f81840152601f19601f82011690508083019250505050505050611cc0565b847f3f95bf1519c6c6ea25742433b1448cab7e6e96c7fbb2107346f8ab2746492d9882600a0160029054906101000a900473ffffffffffffffffffffffffffffffffffffffff166040516114f291906135d0565b60405180910390a25050505050565b6003602052815f5260405f20602052805f5260405f205f915091509054906101000a900460ff1681565b61153482611847565b611573576040517f08c379a000000000000000000000000000000000000000000000000000000000815260040161156a90612e64565b60405180910390fd5b5f5f5f8481526020019081526020015f2090506115908133611a2f565b6115cf576040517f08c379a00000000000000000000000000000000000000000000000000000000081526004016115c690613633565b60405180910390fd5b806006015f3373ffffffffffffffffffffffffffffffffffffffff1673ffffffffffffffffffffffffffffffffffffffff1681526020019081526020015f205f9054906101000a900460ff161561165b576040517f08c379a00000000000000000000000000000000000000000000000000000000081526004016116529061369b565b60405180910390fd5b6003816008015f9054906101000a900460ff1660ff16106116b1576040517f08c379a00000000000000000000000000000000000000000000000000000000081526004016116a890613703565b60405180910390fd5b5f6116c4836116bf906137b2565b611cd6565b90505f6116e3826116d5600161187c565b6116de5f61187c565b611cfd565b90506116f3836007015482611d5f565b8360070181905550611708836007015461190f565b6001836006015f3373ffffffffffffffffffffffffffffffffffffffff1673ffffffffffffffffffffffffffffffffffffffff1681526020019081526020015f205f6101000a81548160ff021916908315150217905550826008015f81819054906101000a900460ff168092919061177f906137c4565b91906101000a81548160ff021916908360ff160217905550503373ffffffffffffffffffffffffffffffffffffffff16857feba4866100b822f0f391e610e7edfab790b9e8766c0012733c26b2f1858e8dd7856008015f9054906101000a900460ff166040516117ef91906137ec565b60405180910390a36003836008015f9054906101000a900460ff1660ff160361184057847f5116952366f0daa625bdec0c8e55be667c0df8ff831c4a17f2146408ec1172e860405160405180910390a25b5050505050565b5f60015482109050919050565b5f61186482604001516004611da8565b61187561187083611df8565b611e3a565b9050919050565b5f611887825f611ed3565b9050919050565b73ea30c4b8b44078bbf8a6ef5b9f1ec1626c7848d973ffffffffffffffffffffffffffffffffffffffff166365d0509c825f1c306040518363ffffffff1660e01b81526004016118df929190613805565b5f604051808303815f87803b1580156118f6575f5ffd5b505af1158015611908573d5f5f3e3d5ffd5b5050505050565b73ea30c4b8b44078bbf8a6ef5b9f1ec1626c7848d973ffffffffffffffffffffffffffffffffffffffff166365d0509c825f1c306040518363ffffffff1660e01b8152600401611960929190613805565b5f604051808303815f87803b158015611977575f5ffd5b505af1158015611989573d5f5f3e3d5ffd5b5050505050565b6119ab838361199f575f6119a2565b60015b60ff1683611eed565b505050565b73ea30c4b8b44078bbf8a6ef5b9f1ec1626c7848d973ffffffffffffffffffffffffffffffffffffffff166334ef1e5a825f1c6040518263ffffffff1660e01b81526004016119ff91906129e8565b5f604051808303815f87803b158015611a16575f5ffd5b505af1158015611a28573d5f5f3e3d5ffd5b5050505050565b5f826003015f60038110611a4657611a45612e82565b5b015f9054906101000a900473ffffffffffffffffffffffffffffffffffffffff1673ffffffffffffffffffffffffffffffffffffffff168273ffffffffffffffffffffffffffffffffffffffff161480611b02575082600301600160038110611ab257611ab1612e82565b5b015f9054906101000a900473ffffffffffffffffffffffffffffffffffffffff1673ffffffffffffffffffffffffffffffffffffffff168273ffffffffffffffffffffffffffffffffffffffff16145b80611b6f575082600301600260038110611b1f57611b1e612e82565b5b015f9054906101000a900473ffffffffffffffffffffffffffffffffffffffff1673ffffffffffffffffffffffffffffffffffffffff168273ffffffffffffffffffffffffffffffffffffffff16145b905092915050565b5f611b8183611f72565b611b9157611b8e5f61187c565b92505b611b9a82611f72565b611baa57611ba75f61187c565b91505b611bb8600284846012611f83565b905092915050565b73ea30c4b8b44078bbf8a6ef5b9f1ec1626c7848d973ffffffffffffffffffffffffffffffffffffffff166365d0509c825f1c306040518363ffffffff1660e01b8152600401611c11929190613805565b5f604051808303815f87803b158015611c28575f5ffd5b505af1158015611c3a573d5f5f3e3d5ffd5b5050505050565b73ea30c4b8b44078bbf8a6ef5b9f1ec1626c7848d973ffffffffffffffffffffffffffffffffffffffff166334ef1e5a825f1c6040518263ffffffff1660e01b8152600401611c9091906129e8565b5f604051808303815f87803b158015611ca7575f5ffd5b505af1158015611cb9573d5f5f3e3d5ffd5b5050505050565b611cd1838363ffffffff1683611eed565b505050565b5f611ce582604001515f611da8565b611cf6611cf183612074565b611e3a565b9050919050565b5f611d07846120b5565b611d1757611d145f6120c6565b93505b611d2083611f72565b611d3057611d2d5f61187c565b92505b611d3982611f72565b611d4957611d465f61187c565b91505b611d5660028585856120d8565b90509392505050565b5f611d6983611f72565b611d7957611d765f61187c565b92505b611d8282611f72565b611d9257611d8f5f61187c565b91505b611da0600284846008611f83565b905092915050565b8060ff168260ff1614611df45781816040517f67cf3071000000000000000000000000000000000000000000000000000000008152600401611deb92919061382c565b60405180910390fd5b5050565b611e00612648565b6040518060800160405280835f01518152602001836020015160ff168152602001600460ff16815260200183606001518152509050919050565b5f73ea30c4b8b44078bbf8a6ef5b9f1ec1626c7848d973ffffffffffffffffffffffffffffffffffffffff166327f9c76283336040518363ffffffff1660e01b8152600401611e8a929190613931565b6020604051808303815f875af1158015611ea6573d5f5f3e3d5ffd5b505050506040513d601f19601f82011682018060405250810190611eca9190613973565b5f1b9050919050565b5f5f611ee1846002856121cb565b90508091505092915050565b73ea30c4b8b44078bbf8a6ef5b9f1ec1626c7848d973ffffffffffffffffffffffffffffffffffffffff166318683701845f1c84846040518463ffffffff1660e01b8152600401611f40939291906139e6565b5f604051808303815f87803b158015611f57575f5ffd5b505af1158015611f69573d5f5f3e3d5ffd5b50505050505050565b5f611f7c826122c8565b9050919050565b5f73ea30c4b8b44078bbf8a6ef5b9f1ec1626c7848d973ffffffffffffffffffffffffffffffffffffffff16631888debd8684611fc088886122d6565b5f67ffffffffffffffff811115611fda57611fd96131d2565b5b6040519080825280602002602001820160405280156120085781602001602082028036833780820191505090505b506040518563ffffffff1660e01b81526004016120289493929190613b3d565b6020604051808303815f875af1158015612044573d5f5f3e3d5ffd5b505050506040513d601f19601f820116820180604052508101906120689190613973565b5f1b9050949350505050565b61207c612648565b6040518060800160405280835f01518152602001836020015160ff1681526020015f60ff16815260200183606001518152509050919050565b5f6120bf826122c8565b9050919050565b5f6120d1825f612374565b9050919050565b5f73ea30c4b8b44078bbf8a6ef5b9f1ec1626c7848d973ffffffffffffffffffffffffffffffffffffffff16631888debd86600461211788888861239d565b5f67ffffffffffffffff811115612131576121306131d2565b5b60405190808252806020026020018201604052801561215f5781602001602082028036833780820191505090505b506040518563ffffffff1660e01b815260040161217f9493929190613b3d565b6020604051808303815f875af115801561219b573d5f5f3e3d5ffd5b505050506040513d601f19601f820116820180604052508101906121bf9190613973565b5f1b9050949350505050565b5f73ea30c4b8b44078bbf8a6ef5b9f1ec1626c7848d973ffffffffffffffffffffffffffffffffffffffff16631888debd84601a5f67ffffffffffffffff811115612219576122186131d2565b5b6040519080825280602002602001820160405280156122475781602001602082028036833780820191505090505b5061225e898960ff166122598a61245f565b6124b6565b6040518563ffffffff1660e01b815260040161227d9493929190613b3d565b6020604051808303815f875af1158015612299573d5f5f3e3d5ffd5b505050506040513d601f19601f820116820180604052508101906122bd9190613973565b5f1b90509392505050565b5f5f5f1b8214159050919050565b60605f600267ffffffffffffffff8111156122f4576122f36131d2565b5b6040519080825280602002602001820160405280156123225781602001602082028036833780820191505090505b509050835f1c815f8151811061233b5761233a612e82565b5b602002602001018181525050825f1c8160018151811061235e5761235d612e82565b5b6020026020010181815250508091505092915050565b5f5f5f9050831561238457600190505b5f612390825f866121cb565b9050809250505092915050565b60605f600367ffffffffffffffff8111156123bb576123ba6131d2565b5b6040519080825280602002602001820160405280156123e95781602001602082028036833780820191505090505b509050845f1c815f8151811061240257612401612e82565b5b602002602001018181525050835f1c8160018151811061242557612424612e82565b5b602002602001018181525050825f1c8160028151811061244857612447612e82565b5b602002602001018181525050809150509392505050565b5f5f8260030b12156124a857816040517f8f568bf800000000000000000000000000000000000000000000000000000000815260040161249f9190613ba9565b60405180910390fd5b8163ffffffff169050919050565b60605f600367ffffffffffffffff8111156124d4576124d36131d2565b5b6040519080825280602002602001820160405280156125025781602001602082028036833780820191505090505b50905084815f8151811061251957612518612e82565b5b602002602001018181525050838160018151811061253a57612539612e82565b5b602002602001018181525050828160028151811061255b5761255a612e82565b5b602002602001018181525050809150509392505050565b6040518060600160405280600390602082028036833780820191505090505090565b6040518060600160405280600390602082028036833780820191505090505090565b8260038101928215612637579160200282015b8281111561263657823573ffffffffffffffffffffffffffffffffffffffff16825f6101000a81548173ffffffffffffffffffffffffffffffffffffffff021916908373ffffffffffffffffffffffffffffffffffffffff160217905550916020019190600101906125c9565b5b5090506126449190612673565b5090565b60405180608001604052805f81526020015f60ff1681526020015f60ff168152602001606081525090565b5b8082111561268a575f815f905550600101612674565b5090565b5f604051905090565b5f5ffd5b5f5ffd5b5f819050919050565b6126b18161269f565b81146126bb575f5ffd5b50565b5f813590506126cc816126a8565b92915050565b5f602082840312156126e7576126e6612697565b5b5f6126f4848285016126be565b91505092915050565b5f60039050919050565b5f81905092915050565b5f819050919050565b5f73ffffffffffffffffffffffffffffffffffffffff82169050919050565b5f6127438261271a565b9050919050565b61275381612739565b82525050565b5f612764838361274a565b60208301905092915050565b5f602082019050919050565b612785816126fd565b61278f8184612707565b925061279a82612711565b805f5b838110156127ca5781516127b18782612759565b96506127bc83612770565b92505060018101905061279d565b505050505050565b5f60039050919050565b5f81905092915050565b5f819050919050565b5f8115159050919050565b612803816127ef565b82525050565b5f61281483836127fa565b60208301905092915050565b5f602082019050919050565b612835816127d2565b61283f81846127dc565b925061284a826127e6565b805f5b8381101561287a5781516128618782612809565b965061286c83612820565b92505060018101905061284d565b505050505050565b5f60c0820190506128955f83018561277c565b6128a2606083018461282c565b9392505050565b5f819050919050565b6128bb816128a9565b81146128c5575f5ffd5b50565b5f813590506128d6816128b2565b92915050565b5f5ffd5b5f608082840312156128f5576128f46128dc565b5b81905092915050565b5f60ff82169050919050565b612913816128fe565b811461291d575f5ffd5b50565b5f8135905061292e8161290a565b92915050565b5f5ffd5b5f8190508260206003028201111561295357612952612934565b5b92915050565b5f5f5f5f60c0858703121561297157612970612697565b5b5f61297e878288016128c8565b945050602085013567ffffffffffffffff81111561299f5761299e61269b565b5b6129ab878288016128e0565b93505060406129bc87828801612920565b92505060606129cd87828801612938565b91505092959194509250565b6129e28161269f565b82525050565b5f6020820190506129fb5f8301846129d9565b92915050565b612a0a81612739565b8114612a14575f5ffd5b50565b5f81359050612a2581612a01565b92915050565b5f5f60408385031215612a4157612a40612697565b5b5f612a4e858286016126be565b9250506020612a5f85828601612a17565b9150509250929050565b612a72816127ef565b82525050565b5f602082019050612a8b5f830184612a69565b92915050565b612a9a816127ef565b8114612aa4575f5ffd5b50565b5f81359050612ab581612a91565b92915050565b5f5ffd5b5f5ffd5b5f5f83601f840112612ad857612ad7612abb565b5b8235905067ffffffffffffffff811115612af557612af4612abf565b5b602083019150836001820283011115612b1157612b10612934565b5b9250929050565b5f5f5f5f60608587031215612b3057612b2f612697565b5b5f612b3d878288016126be565b9450506020612b4e87828801612aa7565b935050604085013567ffffffffffffffff811115612b6f57612b6e61269b565b5b612b7b87828801612ac3565b925092505092959194509250565b612b92816128a9565b82525050565b5f612ba2826128a9565b9050919050565b612bb281612b98565b82525050565b612bc1816128fe565b82525050565b612bd081612b98565b82525050565b612bdf81612b98565b82525050565b612bee81612739565b82525050565b5f61012082019050612c085f83018c612b89565b612c15602083018b612ba9565b612c22604083018a612bb8565b612c2f6060830189612bc7565b612c3c6080830188612bb8565b612c4960a0830187612bd6565b612c5660c0830186612a69565b612c6360e0830185612a69565b612c71610100830184612be5565b9a9950505050505050505050565b5f60208284031215612c9457612c93612697565b5b5f612ca1848285016128c8565b91505092915050565b5f5f60408385031215612cc057612cbf612697565b5b5f612ccd85828601612a17565b9250506020612cde858286016128c8565b9150509250929050565b5f63ffffffff82169050919050565b612d0081612ce8565b8114612d0a575f5ffd5b50565b5f81359050612d1b81612cf7565b92915050565b5f5f5f5f60608587031215612d3957612d38612697565b5b5f612d46878288016126be565b9450506020612d5787828801612d0d565b935050604085013567ffffffffffffffff811115612d7857612d7761269b565b5b612d8487828801612ac3565b925092505092959194509250565b5f60808284031215612da757612da66128dc565b5b81905092915050565b5f5f60408385031215612dc657612dc5612697565b5b5f612dd3858286016126be565b925050602083013567ffffffffffffffff811115612df457612df361269b565b5b612e0085828601612d92565b9150509250929050565b5f82825260208201905092915050565b7f7061706572206e6f7420666f756e6400000000000000000000000000000000005f82015250565b5f612e4e600f83612e0a565b9150612e5982612e1a565b602082019050919050565b5f6020820190508181035f830152612e7b81612e42565b9050919050565b7f4e487b71000000000000000000000000000000000000000000000000000000005f52603260045260245ffd5b7f656d7074792070617065722068617368000000000000000000000000000000005f82015250565b5f612ee3601083612e0a565b9150612eee82612eaf565b602082019050919050565b5f6020820190508181035f830152612f1081612ed7565b9050919050565b7f69646561206e6f74207375626d697474656400000000000000000000000000005f82015250565b5f612f4b601283612e0a565b9150612f5682612f17565b602082019050919050565b5f6020820190508181035f830152612f7881612f3f565b9050919050565b7f656e6372797074696f6e206e6f7420617070726f7665640000000000000000005f82015250565b5f612fb3601783612e0a565b9150612fbe82612f7f565b602082019050919050565b5f6020820190508181035f830152612fe081612fa7565b9050919050565b7f696e76616c69642067726f712073636f726500000000000000000000000000005f82015250565b5f61301b601283612e0a565b915061302682612fe7565b602082019050919050565b5f6020820190508181035f8301526130488161300f565b9050919050565b5f6020828403121561306457613063612697565b5b5f61307184828501612a17565b91505092915050565b7f7a65726f207265766965776572000000000000000000000000000000000000005f82015250565b5f6130ae600d83612e0a565b91506130b98261307a565b602082019050919050565b5f6020820190508181035f8301526130db816130a2565b9050919050565b7f6475706c696361746520726576696577657200000000000000000000000000005f82015250565b5f613116601283612e0a565b9150613121826130e2565b602082019050919050565b5f6020820190508181035f8301526131438161310a565b9050919050565b7f4e487b71000000000000000000000000000000000000000000000000000000005f52601160045260245ffd5b5f6131818261269f565b91507fffffffffffffffffffffffffffffffffffffffffffffffffffffffffffffffff82036131b3576131b261314a565b5b600182019050919050565b5f5ffd5b5f601f19601f8301169050919050565b7f4e487b71000000000000000000000000000000000000000000000000000000005f52604160045260245ffd5b613208826131c2565b810181811067ffffffffffffffff82111715613227576132266131d2565b5b80604052505050565b5f61323961268e565b905061324582826131ff565b919050565b5f5ffd5b5f5ffd5b5f67ffffffffffffffff82111561326c5761326b6131d2565b5b613275826131c2565b9050602081019050919050565b828183375f83830152505050565b5f6132a261329d84613252565b613230565b9050828152602081018484840111156132be576132bd61324e565b5b6132c9848285613282565b509392505050565b5f82601f8301126132e5576132e4612abb565b5b81356132f5848260208601613290565b91505092915050565b5f60808284031215613313576133126131be565b5b61331d6080613230565b90505f61332c848285016126be565b5f83015250602061333f84828501612920565b602083015250604061335384828501612920565b604083015250606082013567ffffffffffffffff8111156133775761337661324a565b5b613383848285016132d1565b60608301525092915050565b5f61339a36836132fe565b9050919050565b5f6040820190506133b45f830185612b89565b6133c16020830184612bb8565b9392505050565b7f76657264696374206e6f742072657175657374656400000000000000000000005f82015250565b5f6133fc601583612e0a565b9150613407826133c8565b602082019050919050565b5f6020820190508181035f830152613429816133f0565b9050919050565b7f616c72656164792072657665616c6564000000000000000000000000000000005f82015250565b5f613464601083612e0a565b915061346f82613430565b602082019050919050565b5f6020820190508181035f83015261349181613458565b9050919050565b7f766f74696e6720696e636f6d706c6574650000000000000000000000000000005f82015250565b5f6134cc601183612e0a565b91506134d782613498565b602082019050919050565b5f6020820190508181035f8301526134f9816134c0565b9050919050565b7f7665726469637420616c726561647920726571756573746564000000000000005f82015250565b5f613534601983612e0a565b915061353f82613500565b602082019050919050565b5f6020820190508181035f83015261356181613528565b9050919050565b7f63616e6e6f742072657665616c206964656e74697479000000000000000000005f82015250565b5f61359c601683612e0a565b91506135a782613568565b602082019050919050565b5f6020820190508181035f8301526135c981613590565b9050919050565b5f6020820190506135e35f830184612be5565b92915050565b7f6e6f742061737369676e656420726576696577657200000000000000000000005f82015250565b5f61361d601583612e0a565b9150613628826135e9565b602082019050919050565b5f6020820190508181035f83015261364a81613611565b9050919050565b7f616c726561647920766f746564000000000000000000000000000000000000005f82015250565b5f613685600d83612e0a565b915061369082613651565b602082019050919050565b5f6020820190508181035f8301526136b281613679565b9050919050565b7f72657669657720636f6d706c65746500000000000000000000000000000000005f82015250565b5f6136ed600f83612e0a565b91506136f8826136b9565b602082019050919050565b5f6020820190508181035f83015261371a816136e1565b9050919050565b5f60808284031215613736576137356131be565b5b6137406080613230565b90505f61374f848285016126be565b5f83015250602061376284828501612920565b602083015250604061377684828501612920565b604083015250606082013567ffffffffffffffff81111561379a5761379961324a565b5b6137a6848285016132d1565b60608301525092915050565b5f6137bd3683613721565b9050919050565b5f6137ce826128fe565b915060ff82036137e1576137e061314a565b5b600182019050919050565b5f6020820190506137ff5f830184612bb8565b92915050565b5f6040820190506138185f8301856129d9565b6138256020830184612be5565b9392505050565b5f60408201905061383f5f830185612bb8565b61384c6020830184612bb8565b9392505050565b61385c8161269f565b82525050565b61386b816128fe565b82525050565b5f81519050919050565b5f82825260208201905092915050565b8281835e5f83830152505050565b5f6138a382613871565b6138ad818561387b565b93506138bd81856020860161388b565b6138c6816131c2565b840191505092915050565b5f608083015f8301516138e65f860182613853565b5060208301516138f96020860182613862565b50604083015161390c6040860182613862565b50606083015184820360608601526139248282613899565b9150508091505092915050565b5f6040820190508181035f83015261394981856138d1565b90506139586020830184612be5565b9392505050565b5f8151905061396d816126a8565b92915050565b5f6020828403121561398857613987612697565b5b5f6139958482850161395f565b91505092915050565b5f82825260208201905092915050565b5f6139b882613871565b6139c2818561399e565b93506139d281856020860161388b565b6139db816131c2565b840191505092915050565b5f6060820190506139f95f8301866129d9565b613a0660208301856129d9565b8181036040830152613a1881846139ae565b9050949350505050565b7f4e487b71000000000000000000000000000000000000000000000000000000005f52602160045260245ffd5b60208110613a6057613a5f613a22565b5b50565b5f819050613a7082613a4f565b919050565b5f613a7f82613a63565b9050919050565b613a8f81613a75565b82525050565b5f81519050919050565b5f82825260208201905092915050565b5f819050602082019050919050565b5f613ac98383613853565b60208301905092915050565b5f602082019050919050565b5f613aeb82613a95565b613af58185613a9f565b9350613b0083613aaf565b805f5b83811015613b30578151613b178882613abe565b9750613b2283613ad5565b925050600181019050613b03565b5085935050505092915050565b5f608082019050613b505f830187612bb8565b613b5d6020830186613a86565b8181036040830152613b6f8185613ae1565b90508181036060830152613b838184613ae1565b905095945050505050565b5f8160030b9050919050565b613ba381613b8e565b82525050565b5f602082019050613bbc5f830184613b9a565b9291505056fea2646970667358221220f7e191d3bdf3d7274edf2ebcf86583674cbbf52270f405ebdf7b67f61162c3d064736f6c634300081c0033",
  "linkReferences": {},
  "deployedLinkReferences": {}
}